:020000040000fa
:10000000f0ff0320212a0000ef240000b72c00009d
:100010005b34000033350000a7380000000000000a
:10002000000000000000000000000000773c00001d
:10003000d332000000000000773c0000773c000055
:10004000773c0000773c0000773c0000773c0000e4
:10005000773c0000773c0000773c0000773c0000d4
:10006000773c0000773c0000773c0000773c0000c4
:10007000773c0000773c0000773c0000773c0000b4
:10008000773c0000773c0000773c0000773c0000a4
:10009000773c0000773c0000773c0000773c000094
:1000a000773c0000773c0000773c0000773c000084
:1000b000773c0000773c0000773c0000773c000074
:1000c000773c0000773c0000773c0000773c000064
:1000d000773c0000773c0000773c0000773c000054
:1000e000773c0000773c00000000000000000000aa
:1000f00000000000773c0000773c0000773c0000e7
:10010000773c0000773c0000773c0000773c000023
:10011000773c0000773c0000773c0000773c000013
:10012000773c0000773c0000773c0000773c000003
:10013000773c0000773c0000773c0000773c0000f3
:10014000773c0000773c00009d1c00009d1c0000d7
:100150009d1c00009d1c000000000000000000002d
:10016000000000000000000000000000000000008f
:100170000000000000000000773c0000773c000019
:10018000773c0000773c0000773c0000773c0000a3
:1001900000000000773c0000773c0000773c000046
:1001a000773c0000773c0000773c0000773c000083
:1001b000773c0000773c0000773c0000773c000073
:1001c000773c0000773c0000773c0000773c000063
:1001d000773c0000773c0000773c0000773c000053
:1001e000773c0000773c0000773c0000773c000043
:1001f000773c0000773c0000773c0000773c000033
:10020000773c00000000000000000000773c000088
:10021000773c0000773c0000773c0000773c000012
:10022000773c0000773c0000773c0000773c000002
:10023000773c0000773c0000773c0000773c0000f2
:10024000773c0000773c0000773c0000773c0000e2
:10025000773c0000773c0000773c0000773c0000d2
:020000040000fa
:10026000f8b500bff8bc08bc9e4670475935000081
:10027000f8b500bff8bc08bc9e4670473535000095
:020000040000fa
:08028000a010000001000000c5
:020000040000fa
:100288002de9f04f2ded028bd2e9008997b0cde929
:100298000c138b6808930b690f90d1e900b614937f
:1002a800cd68002200234046494603f00dfa40b9c4
:1002b8001bf0040f32d11bf00803059330d0202324
:1002c80003e089f0004399462d232b70089b03f126
:1002d800ff3a012305934c4929f0004300208b4243
:1002e80008bf80451fd10d9b413b192b059b94bf2f
:1002f800464947492b44184603f026fe284603f092
:10030800e5fdcdf800b00246089b0f98294602f09b
:100318004ffc17b0bdec028bbde8f08f2b23d4e760
:10032800ddf820a0d7e7994208bf404509d20d9bc8
:10033800413b192b059b94bf364937492b44184636
:10034800dae7002200234046494603f08ffa9fed82
:100358002c7b8ded027b48b300240d9803f0cefd75
:10036800002ec3b20993c0f2e781672b5ad1002e41
:1003780008bf0126231d02dbb442c0f2ca816527eb
:1003880061e09ded067b8ded027b01340022234b5d
:10039800dde9020101f080ff42464b46cde9060146
:1003a80003f076f90028ecd000271fe00446ede7bb
:1003b80014f5967f11da87b90022194b4046494651
:1003c80001f06aff002280468946154bdde90201eb
:1003d80001f062ffcde902010127dde902010022f7
:1003e8000e4b01f04cfbcde90201013cdde9022393
:1003f8004046494603f068f90028d9d1ade700bf67
:10040800000000000000f03f0000f07ff43e000014
:10041800f83e0000fc3e0000003f000000002440c1
:1004280000005043099f662f06f101060bd1002cee
:1004380004da9fedbb7b8ded027b0024099b672bc3
:1004480018bf361966279ded027bcde906898ded2b
:100458000a7b00230e93dde90a23dde9060101f09a
:100468000efb41ec100b02f027f951ec100bb0ee2b
:10047800408af0ee608a02f0c7ffb0ee480af0ee5c
:10048800680a069b1093079b159083f0004311930d
:100498009ded0a1b9ded102b03f01efb53ec102b5a
:1004a80083f000430793dde90a01a14b8ded060aad
:1004b800002201f0e4fa0e9b01339e42cde90a01c5
:1004c8000e93c8d100229b4b01f0e6fecde90a014c
:1004d80002460b46dde9060103f0f6f8002840f075
:1004e8008580dde90a23dde9060103f0bff910b1d3
:1004f800159bda077ad5dde90a234046494601f01b
:100508009ff90022cde90601894bdde9020101f0de
:10051800c3fedde90623cde90a0103f047f8002808
:1005280069d0662f04f1010469d10136a146a9eb0f
:10053800060310934ff000080bf01003059ecdf84a
:1005480008801593109b994540f08380029b002bef
:1005580000f0c9800022652f05eb0600aa5529d1b5
:10056800149b1499013b9442ea54c1f1030ebcbf99
:10057800644201220a21002c40f0bc800eeb030cdf
:10058800bcf1000f00f3b680002a03f1ff3114bf5d
:100598002d222b226a540d9a413a023b192a98bf00
:1005a80045279e4205eb0301ef54aaf1020a01da3e
:1005b80003f0cafc0bf00303022b7ff49faebaf1e1
:1005c800000f7ff79bae284603f080fc05eb0a037b
:1005d800059a824240f39980059b2b44184652465f
:1005e800302103f06bfc0023089387e69fed4e7bd8
:1005f8008ded0a7b7fe79ded027b8ded0a7b652ff4
:1006080014bfa1464ff0000991e7029a52b9b9f117
:10061800000f07da0e992e226a54012201360af1d8
:10062800ff3a029205eb0801aa19314403e04ff0a2
:10063800300002f8010b9142f9d108eb0602303381
:10064800aaeb080808f1ff3a561cab544ff0000813
:1006580027e00c9b0e961b69053bb3427ff676afed
:10066800dde90a23dde9060101f009fa41ec100b86
:1006780002f022f851ec100bb0ee408af0ee608ade
:1006880002f0c2fe159a09280346a8bf09230243af
:10069800bbd1099a672ab8d1b9f1000fc2da08f1bb
:1006a8000108069b1293079bb0ee480af0ee680a11
:1006b80083f0004313939ded0a1b9ded122b03f06d
:1006c8000bfa53ec102b83f000430793dde90a0182
:1006d8000022174b8ded060a01f0d1f909f1ff3917
:1006e800cde90a012ee71bf0100f1ebf2e23ab55d4
:1006f80001362fe7b4fbf1fc013b01fb1c4430340d
:10070800ec540af1ff3a644635e72a5c1a5401387a
:100718005ee7002cbff696ae662784e6062629e635
:10072800000000000000f03f000000000000000092
:100738000000244000001440099b672beed01f46a0
:04074800062670e62b
:020000040000fa
:04074c0000040000a5
:020000040000fa
:100750002de9f04f95b0cde912030b68089392eda7
:10076000007b4b680a938b6809930b690d93cc68e7
:100770000022002351ec170b8ded047b02f0a8ff43
:1007800040b9089b580734d4089b13f0080732d0af
:10079000202306e0dde9042181f00043cde90423b4
:1007a0002d232370099b01275a1edde90403dff87e
:1007b000f8b223f000414ff0000a594508bf5045f8
:1007c0001bd1139b413b192b04eb070094bfb0498d
:1007d000b04903f0bdfbaf4803f07cfb089b0093de
:1007e0000246099b1298214602f0e6f915b0bde8d1
:1007f000f08f2b23d5e7099ad7e7139b8b45a3f1fd
:10080000410308bf82450b9309d2192b04eb070063
:1008100094bfa149a14903f09bfba048dce730212c
:10082000e1550b997b1c1a2934bf58217821e154da
:10083000931e079300220023dde90401023703f031
:1008400019f8002800f07b819fed8f7b8ded027bf6
:1008500000260a9bdde90289002bdde904abb8bf65
:1008600018230e93002542464b465046594601f048
:100870000af941ec100b01f023ff42464b4651ecc4
:10088000100b8ded100b01f00bfd02460b46504690
:10089000594603f071fb824b82468b4640464946df
:1008a000002201f0fdfc6b1c0c930a9b002b804680
:1008b000894606da002200235046594602f0daff44
:1008c00028b90e9bab4200f3408101330c93002208
:1008d000744b4046494601f0e3fc80468946024697
:1008e0000b465046594602f0f3fe002840f02f8197
:1008f00042464b465046594602f0bcff30b1dde956
:10090000100102f085fdc10740f1218142464b46ae
:10091000dde9040100f098ffcde90401dde90421df
:1009200021f00043604900208b4208bf82423ff41f
:1009300048af4ff000083d46c246c1460d9b053bff
:10094000ab42ab4633d9dde90223dde9040101f016
:100950009af841ec100b01f0b3fe51ec100b8ded49
:100960000e0b02f055fd002840f0f680b9f1000fa3
:1009700000f0f28008f10108dde90223dde90e0153
:1009800001f08efc02460b46dde9040103f0f4faa7
:10099000434bcde904010022dde9020101f080fcb6
:1009a0000c9b09f101094b45cde90201c6d1baf111
:1009b000000f1dd1b8f1000f00f015810a9b002b2c
:1009c00040f31181089bda0700f10d812e2308eb1b
:1009d0000502635522446319302103f8011f9a422e
:1009e000fbd1079b45446fea080843440135079350
:1009f0000d9b0d990022013b9642625504eb0500c8
:100a0000e254bcbf76420122c1f1020e4ff00a0847
:100a1000002e40f0d8800eeb030cbcf1010f00f06b
:100a2000d280002a03f1ff3114bf2d222b22625401
:100a30000b9a023b1a2a34bf502270229d4204ebcb
:100a40000301e25401da03f083fa089b03f0030385
:100a5000022b14d1079ba3f10208b8f1000f0edda1
:100a6000204603f037fa04eb0803b84280f2b7805f
:100a700042463021e01903f025fa0023099320466d
:100a8000aae600bfaff30080000000000000f03fc6
:100a9000e43e0000e83e0000ec3e0000f03e0000b6
:100aa0000000b03f000020400000f07fcde9028947
:100ab0000136dde902231046194600f0c5fe8046e6
:100ac000894602460b46dde9040102f001fe0028da
:100ad000ecd0dff82cb1dff82c914ff0000a4ff08a
:100ae0000008dde90223dde9040102f0f1fd002840
:100af0003ff4afae52465b46dde9020101f0d0fba8
:100b00000022002302f0b6fe78b142464b46dde9f2
:100b1000020101f0c5fb4246cde902014b46dde989
:100b2000040101f0bdfbcde90401dde902015246fb
:100b30005b4601f0b5fb013ecde90201d1e79fed37
:100b40002e7b06468ded027bb3e70c9d8be64ff0c6
:100b500000084ff00009d9e6baf1000f0bd1b9f146
:100b6000000f08d02e2304f80b30079b013b013502
:100b700007934ff0010a04eb080362192b4403e0ca
:100b80004ff0300102f8011b9a42f9d1079b05eba7
:100b9000080ba3eb08080b9b0928d4bf3030573053
:100ba000192b06d840f02003613b192b01d803f024
:100bb000b0f908f1ff330bf1010504f80b000793be
:100bc0004ff00008d8e60799b6fbf8fc013b08fb9c
:100bd0001c6630360139e6540791664618e7225cf8
:100be0001a54013841e7089bdb067ff501af2e233d
:100bf00063550135fce600bf000000000000f03f37
:080c00000000e03f000050433a
:020000040000fa
:100c08002de9f04fa3b0b44bd3f800b0bbf1000fff
:100c180000f0f9815e46bee000237375af4d06f122
:100c2800120803273a462968404602f096ff002832
:100c380000f0e7810c35aa4b9d42f3d100233382a3
:100c4800a5e00d283ad00a2838d0082800f0668197
:100c58007f2800f09a811b2800f0ba81f26906f11a
:100c68002005531b4f2b00f2bc81b369d31a00f047
:100c7800b481002b05ddd01a12f8011d5170824293
:100c8800fad1f269511cf16100215170b269013247
:100c9800944906f1720003f03ff8314601f8714fac
:100ca800daf8003048469847b3695a1cb2611c709c
:100cb800b369f26993426ad9f36168e006f12003e7
:100cc8001a460293f36993421ad0daf8003086493b
:100cd80048469847f36900251d70029cf461b46189
:100ce8002022294605a803f0e9f8736803935122e6
:100cf80021460da803f02ef90dacab4601951ee078
:100d0800daf8003079494846984740e097b3013708
:100d18002221384603f09ef80446002800f0f880a7
:100d2800874200f0f58080f800b0072d04d822ab88
:100d380003eb850343f8747c013501341ad0222172
:100d4800204603f087f8074608b180f800b005abe5
:100d580003eb85082046664902f0a0fb03460028fd
:100d6800d4d0072d98bfc8f80030013508f1040821
:100d78000198f0e7082d3ddd33685b6808225d497e
:100d880003989847daf800305b4948469847b668b0
:100d9800002e00f03881d6f800a0d6f80490daf8d2
:100da8000c30484698470028f1d0daf81030484609
:100db80098470446b6f91030002b3ff442aff218ba
:100dc800907401331cb23482032c3ff425af022cfb
:100dd800ddddf568ab689c42d9d1296806f11200bf
:100de80002f0fbff18b96b68294630469847002384
:100df8003382cce72db933681b684049039898477c
:100e0800c0e7002d40f38480d6f8cc30d6f8d04027
:100e1800a3422ed06268c6f8d0201360d6f8cc3032
:100e2800d6f8d0205a605122029904f1080003f044
:100e380091f8d6f8cc301bb32360d6f8d030636075
:100e48001c60d6f8cc305c60c6f8cc400023c6f8ed
:100e5800d430059b01932a4c2168019802f0bdff0c
:100e6800a8b10c34274b9c42f6d1dff8a0b0a846b5
:100e78001ee00022c6f8d020c6f8cc201c46d2e7d7
:100e8800c6f8d040c6f8cc4064602460dee76368ea
:100e980005aa29463046984774e7636805aa41467b
:100ea800304698476ee70bf1100b174b9b452fd038
:100eb800dbf80440002cf6d0dbf80050002df2dd02
:100ec80000272168019802f088ff0028e5d0013743
:100ed8000c34af42f5d1e6e7140900205c34000079
:100ee800a4340000a017000050160000e41500000c
:100ef800d8160000dc1600007c170000141700004c
:100f0800d43b0000f83b000054080020d407002020
:100f180033681b683e490398984733e7b16906f17f
:100f2800200399427ff633aff369994221d24a1ed2
:100f38005b1a002b07dd581e014412f8010f02f856
:100f4800010c8a42f9d1b269013ab261f269511ec3
:100f5800f161002102f8011c06f17104b2692d4902
:100f6800204602f0d9fedaf8003021464846984774
:100f78000de7daf80030284948469847b369013b3d
:100f8800b361f369013bf36101e7f369b269934225
:100f98007ff6fdae511c5b1a002b06ddd01812f847
:100fa800011f02f8011c8242f9d1f269511ef16158
:100fb800002102f8011c06f17104b26917492046a4
:100fc80002f0aafedaf80030214648469847dee6e5
:100fd8001b23b37401233382d9e6002386f87230c9
:100fe8005be60f4cdaf8003004f5e671484698479e
:100ff800f561b561daf8003004f5d07148469847d4
:10100800c5e6f560e5e6012023b0bde8f08f00bf36
:101018004c170000801700008c1700009417000080
:04102800dc150000d3
:020000040000fa
:10102c002de9f04fadb00027dff8e4a2039106469e
:10103c001546b8464ff0ff3903990b78002b00f09a
:10104c00f9800cabcde907890a938023cdf8248075
:10105c000b9300240b5d0bb1252b26d134b122460a
:10106c00304602f08cfd039b23440393039b1a78b8
:10107c00252a40f0d78003f1010bcdf80cb0039872
:10108c0003782b2b1ad025d8202b1bd0232b1dd02b
:10109c002a2b27d002f024fa0990039b1a78303ab5
:1010ac00092a2ed801330393f7e70134d2e7079bc3
:1010bc0043f00103013007930390e0e7079b43f0f3
:1010cc000403f7e7079b43f00803f3e7079b43f0a0
:1010dc001003efe72d2bead0302bd9d1079b43f02f
:1010ec000203e7e72b681a1d1b682a600130002bee
:1010fc000390099305da079a5b4282f0010207928a
:10110c000993079bda0744bf23f002030793039b61
:10111c001a782e2a0dd1581ccdf8208003905a78bd
:10112c002a2a25d1023303932b681a1d1b682a60c7
:10113c00089303a802f08efa039b0190187802f032
:10114c00dbfe6928019979d032dc632800f0c68077
:10115c0019dc252800f0d080612853d025238df888
:10116c001030cdf80cb0cdf81c80cde90898c0e05b
:10117c0002f0b6f90890039b1a78303a092ad8d8ad
:10118c0001330393f7e7642858d06728e6dc2a4636
:10119c0004a802f0cbfc002800f09c80039b5a1c96
:1011ac0003921b7804aa07a93046fff767f838e0ca
:1011bc00702873d015dc6e2800f087806f28cdd195
:1011cc002b46002204a801f0dbfa002800f08280f4
:1011dc00039b04aa013307a93046039301f095fe43
:1011ec001fe075283ad0782848d07328b6d18029ca
:1011fc0070d1039b2a6801330393131d2b60126873
:10120c0000235be02a4604a802f090fc002861d081
:10121c00039b5a1c03921b7804aa07a93046fff7bc
:10122c0091fa04443c44a7426edd384b4f221a60bd
:10123c004ff0ff3738462db0bde8f08f2b4601221a
:10124c0004a801f09dfa002844d0039b04aa0133a2
:10125c0007a93046039301f03dfbe2e72b46002241
:10126c0004a801f08dfa002834d0039b04aa0133a2
:10127c0007a93046039301f0fbffd2e72b4600226f
:10128c0004a801f07dfa28b3039b5a1c03921b7827
:10129c0004aa07a9304601f095f8c2e72b460022b4
:1012ac00f02104a801f06cfaa0b1039b0133039365
:1012bc00dde90423134306d10023524607a9304627
:1012cc0001f0aaffade77823e2e72b463a1904a810
:1012dc0001f02afd039b01330393a3e78029f9d185
:1012ec00039b013303932b681a1d1b682a608df82e
:1012fc001030012304aae1e78029ebd1039b8df880
:10130c00100001330393f4e7274695e640090020cb
:04131c001a3d000076
:020000040000fa
:101320002de9f04f099f154604468e461e46002bb8
:1013300040f0cc808a42b2fa82fc4cd9bcf1000f5a
:101340000bd0ccf1200801fa0cfe20fa08f802fac2
:101350000cf548ea0e0e00fa0cf44fea15491ffa94
:1013600085f8befbf9fa210c09fb1ae30afb08fb1e
:1013700041ea03439b452ad9eb180af1ff3004d216
:101380009b4502d9aaf102002b44a3eb0b03a4b2a4
:10139000b3fbf9f209fb123302fb08f844ea0344f9
:1013a000a04516d92c1902f1ff3303d2a04501d96b
:1013b000931e2c44a4eb080443ea004027b124fa0e
:1013c0000cf400233c607b603146bde8f08f504652
:1013d000dbe71346eee702b9ffdebcf1000f2ed1ca
:1013e0008b1a01264fea154eaab2b3fbfef8210c68
:1013f0000efb183308fb02f941ea0343994561d912
:10140000eb1808f1ff3004d2994502d9a8f1020087
:101410002b44a3eb0903a4b2b3fbfef10efb113383
:101420004a4344ea0344a2424ed92c1901f1ff3346
:1014300003d2a24201d98b1e2c44a41abce7ccf1e2
:10144000200e02fa0cf521fa0ef901fa0cf320fa3b
:101450000efe4eea03034fea154800fa0cf4b9fbfe
:10146000f8f11ffa85fe08fb1192180c01fb0ef62d
:1014700040ea0242964221d9aa1801f1ff3003d274
:10148000964201d9881e2a44921b9bb2b2fbf8f9fe
:1014900008fb192209fb0efe43ea02439e450fd9c1
:1014a000eb1809f1ff3604d29e4502d9a9f10206d4
:1014b0002b44a3eb0e0346ea004693e70846e3e716
:1014c0004e46f6e74046a4e70b46b6e78b4206d900
:1014d000002f7ed00026c7e90001304674e7b3fa3a
:1014e00083fcbcf1000f0fd18b4201d3824209d89b
:1014f000841a61eb030e0120002f6dd0c7e9004e66
:10150000002661e76046f7e7ccf1200e03fa0cf302
:1015100022fa0ef521fa0ef41d4301fa0cf320fa1b
:101520000ef10b434fea154a00fa0cf6b4fbfaf938
:101530001ffa85f80afb19401c0c09fb08f144ea64
:101540000044a14202fa0cf23fd92c1909f1ff30f4
:1015500004d2a14202d9a9f102002c44641a9bb220
:10156000b4fbfaf90afb194409fb08f843ea044101
:1015700088452cd9691809f1ff3304d2884502d96e
:10158000a9f10203294443ea0040a1eb0801a0fbb2
:1015900002894945c2464c4602d306d1464504d28b
:1015a000b8eb020a69eb05040138afb1b6eb0a03e8
:1015b00061eb040606fa0efe23fa0cf34eea03036f
:1015c00026fa0cf6c7e900369ae74846c6e74b46c6
:0c15d000d9e73e463846f7e63e46f5e611
:020000040000fa
:1015dc0008200800080000000d0a3e000d0a2d2d01
:1015ec002d2d2d2d2d20537570706f727465642008
:1015fc00636f6d6d616e642067726f757073202df3
:10160c002d2d2d2d2d0000000d0a202a2a2a200018
:10161c00202a2a2a000000000d0a2d2d2d2d2d2dfb
:10162c002d2d2d2d204275696c7420696e20636ff1
:10163c006d6d616e6473202d2d2d2d2d2d2d2d2d69
:10164c002d0000000d0a00000d0a556e6b6e6f77b1
:10165c006e20636f6d6d616e642067726f75702e96
:10166c00205472792068656c700d0a001b5b256430
:10167c00430000001b5b2564440000000d0a202a77
:10168c002a2a205175697474696e67207468652004
:10169c00436f6d6d616e642050726f636573736f11
:1016ac00722e20427965202a2a2a0d0a0000000099
:1016bc000d0a202a2a2a2053797374656d205265ed
:1016cc00626f6f74202a2a2a0d0a000020092c0050
:1016dc000a0d20546f6f206d616e792061726775f1
:1016ec006d656e74732e204d6178696d756d20611a
:1016fc0072677320737570706f727465643a20250d
:10170c0064210d0a00000000202a2a2a20436f6d54
:10171c006d616e642050726f636573736f723a20e3
:10172c00506c65617365207479706520696e2061f9
:10173c0020636f6d6d616e642a2a2a0d0a00000009
:10174c00202a2a2a20436f6d6d616e642050726fbf
:10175c00636573736f723a20756e6b6e6f776e2064
:10176c00636f6d6d616e642e202a2a2a0d0a0000ab
:10177c003e000000081b5b4b25731b5b256444007b
:10178c00081b5b4b000000001b5b4b25731b5b2590
:10179c006444000025731b5b25644400202a2a2a1c
:1017ac0020436f6d6d616e642050726f636573734f
:1017bc006f72206275666665722065786365656414
:1017cc0065642e2052657472792e202a2a2a0d0afd
:1017dc000000000072657365740000003a205265c9
:1017ec0073657420686f7374000000007100000052
:1017fc003a207175697420636f6d6d616e64207031
:10180c00726f636573736f720000000068656c70b3
:10181c00000000003a2068656c7000001b5b410002
:10182c001b5b42001b5b43001b5b44001b5b317e5c
:0c183c00000000001b5b347e000000bfb9
:020000040000fa
:1018480030b591ea030f00f18280841a71eb030c22
:1018580005d2121953eb0c03001b71eb0c0140f27b
:10186800000ccff6e07c1cea430f52d0bceb410fd2
:101878005fd90c0da4eb135e5ff0010c6cf31f51e4
:101888006cf31f53def1200c2ad303fa0cf5401930
:1018980041f1000122fa0ef5401923fa0ef56941cb
:1018a80012fa0cf2cd0208d349085fea30005fea69
:1018b800320228bf42f001020134013c5fea500cb9
:1018c80072f1004250f1000051eb04514ff4001343
:1018d80013eb410f38bf30bd6ff31301002030bd4b
:1018e800bef1200ebef1200f1ed223fa0ef54019cc
:1018f80041f10001cef1200c124218bf012203fa77
:101908000cf52a43cee711ea5c0f04bf0020002142
:1019180030bd1cea410f04bf01f00041002030bd7a
:1019280001f00041002030bd21f4801101eb045189
:1019380030bd004218bf41f00101bceb410f08bfa8
:1019480030bd4ff0fe4141f47801002030bd83f0f6
:101958000043841a71eb030e07d28ef0004e001b71
:1019680071eb0e01121953eb0e0340f2000ccff687
:10197800e07c1cea430fc6d0bceb410f72d90c0dba
:10198800a4eb135ec90241ea5051c00241f0004184
:10199800db0243ea5253d20243f00043def1200c4b
:1019a80041d312fa0cf522fa0ef203fa0cf542eac8
:1019b800050218bf42f0010223fa0ef3801a99417a
:1019c800e30ac4f30a0411f0404f03d418d0013cd1
:1019d80040004941013c23d44205c00a40ea415035
:1019e800c90a51eac3715fea500c72f1004250f122
:1019f800000051eb045130bd01002fd00020203ce5
:101a08000029f9d0b1fa81fcdcf1200e11fa0cf1b1
:101a180030fa0ef510fa0cf02943a4eb0c04d9e7c0
:101a28000020d90730bdaef1200ebef1200f0dd237
:101a3800cef1200c03fa0cf533fa0ef32a4318bf43
:101a480043f00103c01a61f10001b9e721f0004138
:101a5800c00a40ea4150c90a01eb045130bd0020d8
:101a6800002130bd004218bf41f00101bceb410f1d
:0e1a78007ff467afbceb430f3ff463af30bdac
:020000040000fa
:101a8600f0b581ea030e0ef0004e40f20007cff6e5
:101a9600e07717ea41051ebf95ea070f17ea4304e8
:101aa60094ea070f00f0c5806d0da5eb545707f5b6
:101ab60080674ff0004646eac12444ea5054c0020b
:101ac60046eac32343ea5253d202801a9c4104d207
:101ad6000018644180185c41013f5b084fea3202fe
:101ae6000025002140f001004ff0070604e0801aaf
:101af6009c4136d340416441801a9c4136d34041d3
:101b06006441801a9c4136d340416441801a9c410d
:101b160036d340416441801a9c4136d340416441ea
:101b2600013e17d0801a9c4136d340416441801a49
:101b36009c4136d340416441801a9c4136d3404192
:101b46006441090201eb156190ea052520f0ff00ca
:101b56004540cce7801a9c4156d335e080185c415d
:101b6600c8d20018644180185c41c8d2001864418c
:101b760080185c41c8d20018644180185c41c8d204
:101b86000018644180185c41c8d200186441013ec7
:101b960017d080185c41c8d20018644180185c4197
:101ba600c8d20018644180185c41c8d2001864414c
:101bb600090201eb156190ea052520f0ff0045407a
:101bc600cce780185c411fd3420918bf44f00104da
:101bd600490101ebd56100f01f0000eb451021f42f
:101be600801141ea0e01013041f10001244208bf93
:101bf60020f00100b7f5006f3eda013f49dd01eb49
:101c06000751bde8f0407047490101ebd56100f08e
:101c16001f0000eb451021f4801141ea0e01b7f5d3
:101c2600006f29da013f34dd01eb0751bde8f040d2
:101c36007047004218bf41f00101124218bf43f03d
:101c46000103b7eb410f2cbfb7eb430f1ce0b7eb1b
:101c5600410f04bfb7eb430f16e017ea410f04bf6d
:101c660017ea430f10e017ea410f12d017ea430fa5
:101c760002d0b7eb430f0cd04ef0fe4141f4700199
:101c86000020bde8f04070474ff0fe4141f4780176
:061c9600f6e77146f4e7d9
:020000040000fa
:101c9c00f8b5674b9b7d002b00f0c880644a137e1f
:101cac00dbb2927d12f0800f3fd1614a137edbb222
:101cbc00927d12f0010f00f0ac8013f0010f00f0d8
:101ccc00a8805b4d5b4c5c4e2b7e13f0010f00f03b
:101cdc00a080a368e268934200f098806b6803f0e0
:101cec000703012b02f1010314bfb25c36f812207a
:101cfc002169994298bf0023e3606b6803f00703e6
:101d0c00012b18bfd2b2aa62237d002bdcd002f0cb
:101d1c0081f82368002bd7d0227f42b3a26990426e
:101d2c00d2d3616803209847cee713f0800fbcd064
:101d3c003f4b5b8b13f00703b7d03e4ad3873c4b2a
:101d4c0080221a7607225a831b7e13f0040f05d0cb
:101d5c00374b9a6a1a7e12f0040ffad1354b1b6a74
:101d6c00002ba2d0334a516a022098479de7a26902
:101d7c009042a9d1616803209847a5e7226a002afe
:101d8c0032d0616a38469047a36a0133226b934282
:101d9c0028bf002328e0a16a284a22f811602ee00f
:101dac0001f0d2ff236a002b2ed094f83c2032b1e4
:101dbc00a26b904228d3616a0020984724e0a26b62
:101dcc00904221d1616a002098471de02b7e13f0d0
:101ddc00040f2bd0ae6aa36a0133226b934228bf47
:101dec000023e26a9a42c9d0e26a9a42eed06a684b
:101dfc0002f00702012aced0a26a10498e54a362c7
:101e0c0094f83430002bcbd10127dfe7084b0122ab
:101e1c001a75074a137edbb2927d12f0040f05d0bf
:101e2c0013f0040f02d0024d024cede7f8bd00bfd9
:101e3c0000040043a408002054070020d40600200e
:020000040000fa
:101e4c002de9f04f87b0039003a801f08dfb00281b
:101e5c0003da002007b0bde8f08f039b1b095d1e61
:101e6c00202d0fd9023b5e4ab3f5007f35bf02eb44
:101e7c00d30302ebd31313f8045c13f8045c34bfe4
:101e8c00013511350123a5f12001c5f1200203fa1a
:101e9c0001f923fa02f203fa05f8d8f1000849ea2d
:101eac00020969eb4909cde90089dff84081dff8c7
:101ebc0030914746d8e90023009902ea010a0199ba
:101ecc0003ea010b5aea0b0342d1039b05a810331a
:101edc00059301f075ff18b9424b0c221a60b9e753
:101eec00d8f80852a84206d0059b103b0593012355
:101efc0000f110058360059bea18012143f00103f2
:101f0c00b5f1080442f8083c42f8041cc7f8082252
:101f1c0045f8043c9dd0204601f068fd88b155f889
:101f2c00083c55f8041c23f00103e31a5a6822f00c
:101f3c0001020a445a6055f8041c21f00101625058
:101f4c001c462046039901f081fd04f1080081e74d
:101f5c005446254bbaf1000f34d1cbf1000000ea06
:101f6c000b00434309ebd36393f83c6020363046b7
:101f7c0001f05cfe731c57f8334007ebc303083bbe
:101f8c009c4297d0272e26dd0235ae4201dc3f2e37
:101f9c0021d16268039922f00102551a284601f0fa
:101fac003dfb864217d1e068a6686318d8609e6036
:101fbc0083609868c36041f0010060505d60a5507b
:101fcc006060bee7caf100002040434309ebd363d5
:101fdc0093f83c60cbe73146204601f0f1f8b0e7ce
:101fec00703100004009002029e66b070004002036
:020000040000fa
:101ffc002de9f04704464568012904d091464f4e1f
:10200c0006f180075ce000224c4e4d4f07f1380979
:10201c0006f1800818e023681b6849462846984753
:10202c0023681b68b1682846984723681b68f168c9
:10203c002846984723681b6807f1400128469847b3
:10204c000122103646450bd07368002bf9d0002abc
:10205c00e1d123681b6807f10c0128469847dae7a1
:10206c0023681b68374928469847374b03f10c0601
:10207c0003f13008324f07f13809403723681b68e9
:10208c0049462846984723681b6856f80c1c284676
:10209c00984723681b6856f8041c28469847236801
:1020ac001b683946284698470c36b045e6d123685c
:1020bc001b6826492846984738e01036be4237d070
:1020cc007368002bf9d0d9f80410b06801f083fec6
:1020dc0080460028f1d177683368002b21dd0c375e
:1020ec00174b03f1380a03f1400923681b6851466a
:1020fc002846984723681b6857f80c1c28469847b5
:10210c0023681b6857f8041c2846984723681b68eb
:10211c0049462846984708f101080c37336843456f
:10212c00e3dc23681b68094928469847bde8f0871b
:10213c0023681b68064928469847f7e7d407002010
:10214c00dc15000024160000d43b000050160000e3
:04215c005416000015
:020000040000fa
:10216000e40800201c0000000000000048090020d6
:1021700001000000000000004909002001000000eb
:1021800000000000240900200400000000000000fe
:10219000000900200c000000000000000c060020d8
:1021a000c8000000000000004a09002001000000f3
:1021b000000000004b0900200100000000000000aa
:1021c000d40600208000000000000000540700201a
:1021d0008000000000000000a40800204000000073
:1021e000000000002809002004000000000000009a
:1021f0000c09002008000000000000002c0900204d
:102200000400000000000000d4070020800000004f
:102210000000000014090020080000000000000079
:102220000000002000040000000000003009002031
:1022300004000000000000001c090020080000004d
:10224000000000003409002004000000000000002d
:10225000540800205000000000000000000400208e
:102260000c020000000000003809002004000000fb
:10227000000000003c0900200400000000000000f5
:102280004009002004000000000000004409002074
:10229000040000000000000000000000000000003a
:020000040000fa
:1022a000f0b540f2ff7681ea030c16ea115e1ebf1c
:1022b000b64516ea1355b54252d021ea465141f4cb
:1022c0008011a1fb024723ea465343f48013ae4436
:1022d000a0fb03650cf0004c36197d41a1fb0347c0
:1022e00047f10003a0fb0217f619654153f1000303
:1022f000094218bf46f0010640f2fe74b3f5007fb4
:1023000013d2aef5806ea64523d24cea03312803e2
:1023100041ea155140ea16503203450872f1004275
:1023200050f1000051eb0e51f0bdaef2ff3ea6455c
:102330000fd24ceac321e80241ea555140ea565017
:10234000f202450872f1004250f1000051eb0e51cb
:10235000f0bd1eea0e0f2dd50cf000410020f0bd9f
:1023600016ea115f04bf01f000410020004218bfcf
:1023700041f0010116ea135f04bf03f0004300229d
:10238000124218bf43f0010306ea1354b44218bfc7
:10239000b64503d00cf000410020f0bd21f0004113
:1023a00023f00043b1eb065f0cd8b3eb065f09d80e
:1023b00041b13bb10cf0004141f0fe4141f47001ec
:1023c0000020f0bd40f20001c7f6f8710020f0bd1a
:020000040000fa
:1023d0002de9f04fd1e901590e68d1f80c808bb08e
:1023e000002da8bf26f002060393b8bf012516f002
:1023f000100302900f460493d2e900ab37d05aea9b
:102400000b0334d0a9f102033c6916f0080104f172
:10241000ff3405914ff0000108f8041006f00201a6
:102420000691039918bf03f1ff335b1b4139012c5f
:102430001fdc049b002b4cd1059b1bb1013c2023ce
:1024400008f804303a690096013a4b46121b08eb33
:102450000401029800f0b0fb029b5b68db0503d52a
:102460007b689842b8bf18460bb0bde8f08f4b466a
:10247000cae75aea0b0007d1002d05dc58190028dd
:10248000d7dd06980028d4d00af00f000928d4bf61
:1024900030305730192904f1ff340ed840f0200ca9
:1024a000acf1610cbcf1190f07d8cde908310792e6
:1024b00001f02ffddde90831079a08f804004fea22
:1024c0001a1040ea0b704fea1b1c013d8246e3469e
:1024d000ade7d2e900231343aed008eb0403039a1f
:0e24e00003f8012c023c302308f80430a4e776
:020000040000fa
:0224ee00fee707
:020000040000fa
:1024f0002de9f84300286ad050f8043ca0f1080404
:1025000023f00106a719a259934200d0ffde7a6892
:1025100023681340da070fd4204601f06dfa002833
:1025200057d1384601f0c6fa0028f0d07b6823f076
:1025300001031e441f44eae746f00103636030468e
:102540003b6001f071f8054601f076fb23687a687c
:102550001340db07e0d5dff88ce0dee90089c5f148
:10256000200ca5f1200228fa05f009fa0cfc29fa42
:1025700002f240ea0c001043012100ea01020023ac
:102580001343c5f120007346a5f1200212d121fab0
:1025900000f001fa02f2a94042ea00021ebfdef892
:1025a00000000143cef8001022b1def804100a4307
:1025b000cef80420681c03ebc003a3f10802666098
:1025c0003e60a2605a68e2605c60e3689c60bde8bf
:1025d000f883236823f00103e41a636823f00103fe
:0825e0001e449ee700040020e8
:020000040000fa
:1025e8002d4b00221a7403f500632c4a9a621a468e
:1025f800536813f0100ffbd1294b4222c3f88420f3
:102608001a46d2f8843013f0400ffad0254b002236
:102618009a6377225a631a46d36b13f0040ffbd1df
:10262800204b022283f830201a46d36b13f0020f96
:10263800fbd11c4a136c03f00303032bfad11a4b8a
:1026480001225a711a46d37813f0010ffbd0144bac
:10265800164a1a621a46536813f0040ffbd1104b3e
:10266800134a5a621a46536813f0080ffbd10c4bf1
:102678004122c3f80c211a46d2f80c3113f0400f4e
:10268800fad0094b6ff07f421a6140f2ff725a612b
:1026980002221a62704700bf001400400601300091
:1026a800001c004000100040000800400701010025
:0426b8000701020014
:020000040000fa
:0426bc006c3d000071
:020000040000fa
:1026c00053ec102bc3f30a512de9f04140f2fd7099
:1026d0004e1e86421d4645d8a1f2ff30002835db4c
:1026e000332831dc284bc0f120084ff0ff3c03fabf
:1026f00008f2a1f21f412cfa00fc10ee104a4cea3d
:10270000020c23fa01f24cea020c23fa00fe04ea5e
:102710000c0605ea0e0724ea0c0256ea070425ea2d
:102720000e030fd0002a73f100040bda4ff480156a
:1027300005fa08f425fa01f10c43121925fa00f004
:1027400040eb030343ec102bbde8f081002a73f14a
:10275000000303db9fed080bbde8f0819fed080b44
:10276000bde8f0810029efd10a4603f0004343ecb5
:10277000102be9e7aff3008000000000000000002c
:0c278000000000000000f0bfffff0f0091
:020000040000fa
:10278c00882910b536d012dc812943d003dc80298e
:10279c0040d0002010bd82290ed08429f9d11968af
:1027ac0002b30a1d1a60b1f90020d3171ee0a0294c
:1027bc002bd00bdc9029ecd11968073121f00701e3
:1027cc0001f108021a60d1e900230fe0c02901d001
:1027dc00f029ded11a68111d1960136803600023fb
:1027ec00436005e00a1d1a600a880023c0e9002333
:1027fc000120cfe7196822b10a1d1a6091f9002057
:10280c00d3e70a1d1a600a78efe71a68111d1960e0
:10281c001268cae719681ab10a1d1a600a68c4e777
:0c282c000c1d1c600b68c0e90032e1e7e5
:020000040000fa
:102838002de9f041002946d08c46244b1f6900241d
:1028480023491a46dff88ce00fe010f804804e6840
:1028580006f00706012e14bf0ef805802ef8158025
:102868009360631c013463452bd24b6803f0070364
:10287800012b10d09568d6686b1cbb4228bf00237b
:102888009e42e2d101f056fa10b1114b01229a751d
:102898002046bde8f0819568d6686b1cbb4228bf0e
:1028a80000239e42eed030f814804e6806f00706ea
:1028b800012e14bf0ef805802ef815809360631c56
:1028c800d0e71c46dee70c46dce700bfa408002082
:0828d800000400435407002036
:020000040000fa
:1028e0002de9f041d2e900230c4686b007465feaa5
:1028f000d37820684968a5680590e66841d05242bf
:1029000063eb4303002908db20f002000590b8f1d7
:10291000000f02d1059948072ad5691e05a8029023
:102920000a20cde90010204600f07efab8f1000f31
:1029300002d1059b59071fd5b8f1000f00f1ff30f8
:1029400014bf2d232b2333542269059b0093013a96
:102950002b46121a3118384600f02ef97b68db0539
:1029600003d563689842b8bf184606b0bde8f08149
:102970000807d2d42946d1e71a07e5d50138202324
:08298000e1e70029c0dac5e718
:020000040000fa
:102988002de9f04f83b080468b4601f1080301938f
:10299800184601f09bfa002834d081460546d8f83d
:1029a8000070d8f8046008f1200ad8f81c40a4eb9d
:1029b8000a04a04207da3b68144930469847013cac
:1029c800a542f8d14c46651e44b1114c3b682146de
:1029d80030469847013db5f1ff3ff7d10199504680
:1029e80001f0b2fa3b680b49304698473b685146bc
:1029f800304698470aeb0903c8f81c30c8f8183065
:102a0800c8f8d4b003b0bde8f08f00bfdc150000f3
:082a1800e0150000e4150000c8
:020000040000fa
:102a200008b51b4b98471b4b9847eff3108172b6c4
:102a3000194ad2f8883043f47003c2f88830bff3e3
:102a40004f8fbff36f8f01b962b6144c20236360c0
:102a500001f09cfa124b23f07f030f4a9360114b55
:102a60009847a36823f00103a3602346da6812f0b5
:102a7000010ffbd1094b5a6842f004025a6001224f
:102a80009a60094b9847094b984701f003f9fee714
:102a9000873a0000873a000000ed00e00060004146
:102aa0000000000015310000873a0000873a00005e
:020000040000fa
:102ab00070b506460d464ff41270fff7c7f904468d
:102ac000002830d04ff41272002101f0fbf926608b
:102ad000656004f12003e361a36104f1d80304f508
:102ae000127108e0c4f8d030c4f8cc305b601b60d1
:102af0005c338b420ed0d4f8cc20002af2d01a607e
:102b0000d4f8d0205a601360d4f8cc205360c4f8b5
:102b1000cc30ede70023a360064b1b682bb1054bbf
:102b20005a6894605c60204670bd024b1c605c601b
:082b3000f9e700bf14090020c1
:020000040000fa
:102b38000eb430b5adf5816d0df2144353f8042b86
:102b480001934ff4806102a800f080fa421e40f21f
:102b5800fe339a4221d8044602ab00221a54124b83
:102b68001b680344b3f5806f24bf0f4b1a600e4bec
:102b78001b680e4d1d4402a9284601f0e5f92946b7
:102b8800002001f09ff814f0030218bfc2f10402fc
:102b9800054b19680c4414441c600df5816dbde8a3
:102ba800304003b0704700bf30090020000000200b
:020000040000fa
:102bb8002de9ff471d460c9b13f0010906468a467e
:102bc800144601d195420bd822465146304600f0b2
:102bd800d8ffa54204d82546284604b0bde8f087aa
:102be8002f1b102f3a464ff0200128bf10226846ad
:102bf800b84601f063f9b8f10f0f11d83b096ff02f
:102c08000f0202fb03726946304600f0baffb9f1c1
:102c1800000fe1d122465146304600f0b2ffdbe713
:102c280010226946304600f0acffa8f11008e2e730
:020000040000fa
:102c380030b50d4689b0044620220021684601f0cf
:102c48003df92878a8b16b7863b1013d012015f8ea
:102c5800013f83b921460125084611f8013bc3b954
:102c6800001b06e023461a46013311788142fad048
:102c7800101b09b030bd5a0908a901eb820203f004
:102c88001f0352f8201c00fa03f30b4342f8203cc0
:102c9800dde75a090df1200c0ceb820203f01f034b
:0e2ca80052f8202c05fa03f31342d5d1d8e7d9
:020000040000fa
:022cb600fee737
:020000040000fa
:102cb8001b4b1c4a1a604ff622029a814ff440328d
:102cc8005a601a46d369002bfcd1154a136843f0a1
:102cd80002031360d369002bfcd1134b00221a6244
:102ce8009a62da6283f8342083f83c209a63da87a0
:102cf8001a609a60da601a751a779a61084b5b68ed
:102d080003f00703012b084b14bf802240221a63eb
:102d18001a61034b80229a7504229a75704700bf86
:0c2d28000004004304011040a408002037
:020000040000fa
:102d3400842910b523d00cdc812903d0822913d037
:102d440080290bd119680c1d1c600b6803601a6084
:102d540013e0902921d003dc882917d0002010bd6e
:102d6400a029efd0c029ece719680c1d1c600b6882
:102d74000360d1171046c3e900010120efe7196889
:102d84000c1d1c600b6803601a80f6e719680c1da3
:102d94001c600b6803601a70efe719680c1d1c6057
:0c2da40009680160d317c1e90023e6e7cd
:020000040000fa
:102db0002de9f041194ce36aa46a49b30d46a342d8
:102dc00029d0164a176b0246154ec0f1010edff8e6
:102dd00054c0c0f10008716801f0070101290eeb31
:102de000020019bf1cf8031011703cf8131028f8ea
:102df000121001339f4298bf0023a84203d2013230
:102e0000a342e8d100e01c46044bdc62bde8f0813f
:102e10001c460846f8e70020f6e700bfa40800209b
:082e200000040043d406002069
:020000040000fa
:102e28002de9f84f04460c9f6668d4f80cb0246965
:102e380010463a68013c002502f0020a0b9a0bf88a
:102e48000450002e1946b8bf0126012390464feac8
:102e5800e279002c03dcd3b12046bde8f88f50eab4
:102e6800010209d1721b002a06dc0a9a521b002aa9
:102e7800f1ddbaf1000feed042464b4600f0d0fd2e
:102e8800013c134630320bf804200135e1e73b687a
:082e980023f010033b60dfe7ab
:020000040000fa
:102ea00030b50d46097889b0044609b16b782bb965
:102eb000204600f0fff8001b09b030bd20220021a1
:102ec000684600f0ffff013d012015f8013fa3b95e
:102ed00021460125084611f8013b002bebd05a0989
:102ee0000df1200c0ceb820203f01f0352f8202c92
:102ef00005fa03f31342edd0dde75a0908a901eb07
:102f0000820203f01f0352f8201c00fa03f30b4364
:062f100042f8203cd9e765
:020000040000fa
:102f1600f0b50c4649682368a768e56887b00029bc
:102f26000593a4bf23f00203059305ab0293082380
:102f3600cde900730646d2e900232046fff771ff6c
:102f4600059bd90642bf00f1ff3030232b54059b69
:102f56001a0742bf00f1ff3020232b542269059b3c
:102f66000093013a3b46121a29183046fff721fe14
:102f76007368db0503d563689842b8bf184607b087
:022f8600f0bd9c
:020000040000fa
:102f88000eb410b583b00023019350b9144b93f9d4
:102f9800003033b1124b5b681bb1124b1b78012b0d
:102fa80004d003b0bde8104003b070470d4b0022b9
:102fb8001a7006ab0193059ac8210b4800f046f831
:102fc800431ec62b08d8084900230b54044b5a68e3
:102fd800546902469868a047024b01221a70e0e73c
:0c2fe800000900204a0900200c0600200f
:020000040000fa
:102ff40070b5144b144a0021934206d3134a00259a
:10300400d2e9003123b919b970bd03f8011bf3e704
:10301400946858180c3294b11446834208d111f0c4
:10302400030318bf012303eb910102eb8102e7e7dd
:1030340014f8016b03f8016befe703f8015b8342bb
:10304400fbd1dde70000002000000020602100002b
:020000040000fa
:10305400f0b59bb004460d46164600214c2207a845
:103064001f4600f02dff4ff0ff33029303f20313ca
:10307400039304b901accde9044555b16a1e002d92
:10308400069208da094b4f221a604ff0ff301bb04a
:10309400f0bd2a46f3e7002323703a46314602a8de
:1030a400cde9074400f01efef1e700bf400900200f
:020000040000fa
:1030b400c9b2f8b50446f1b103469a0718461ed1c1
:1030c4004ff001354d431e4656f8044b84ea05077c
:1030d400a4f10132a7f1013022ea040220ea070038
:1030e400024312f0803f11d0184613f8012b2ab185
:1030f4008a42f9d102e000f0ebfe2044f8bd13f857
:10310400012b002afad08a42d7d1f7e73346dae70f
:020000040000fa
:103114000e4a38b5002313600d4a0e4c13600e4a54
:103124000e4d13600e4a13600e4a13600e4a53622a
:1031340013610123936000f02cff00f02affac42de
:1031440000d338bd54f8043b9847f8e73c09002005
:10315400600800206c0200005c080020700200007f
:0c316400540800205808002064080020d7
:020000040000fa
:1031700020212223242425252626272728282828fd
:10318000292929292a2a2a2a2b2b2b2b2c2c2c2c97
:103190002c2c2c2c2d2d2d2d2d2d2d2d2e2e2e2e5f
:1031a0002e2e2e2e2f2f2f2f2f2f2f2f00011702d5
:1031b0001d1813031e1b190b1408040d1f161c12d7
:0c31c0001a0a070c1511090610050f0e65
:020000040000fa
:1031cc0070b5d0e90245a54217d10122a1f1200327
:1031dc00c1f1200622fa06f602fa03f333438a40c1
:1031ec00db43d6431ab10b490a6832400a605a1cb9
:1031fc001fbf084a51680b4053604368ac6043f0f2
:10320c00010223f00103e5604260c25842f0010262
:08321c00c25070bd0004002047
:020000040000fa
:103224002de9ff41134dd1f80080af88adf80c7043
:1032340006462868029002aca8798df80e00002a90
:1032440018bf1446d1e901571a461bb9204600f0ad
:103254003ffe0246002d02dbaa4228bf2a46cdf8d3
:1032640000803b4621463046fff7a4fc04b0bde88d
:08327400f08100bf803f000063
:020000040000fa
:10327c00f0b50c4649682368a668e76887b0002952
:10328c000593a4bf23f00203059305ab02930a2315
:10329c00cde900630546d2e900232046fff7befdc9
:1032ac002269059b0093013a3346121a39182846b5
:1032bc00fff77cfc6b68db0503d563689842b8bfed
:0632cc00184607b0f0bd3a
:020000040000fa
:0232d200fee715
:020000040000fa
:1032d400114b1b7823b90123104a13700e4a137043
:1032e400a0b9b1b10e4b93f9003013b14ff0ff30d8
:1032f400704710b588680a4b98604a685a6002247f
:103304001c70536809689847002010bd4ff0ff30c7
:1033140070474ff0ff3070474b0900204a090020e6
:04332400000900207c
:020000040000fa
:1033280008b583b2cbb9184603eb43020f4b03eb46
:1033380082035a68a2b100eb40000c4b03eb8000fb
:10334800536a8068984701280cd043b263b10228b9
:103358000cbf01204ff0ff3008bd4ff0ff30fbe7f6
:103368000020f9e70220f7e70020f5e70009002030
:020000040000fa
:10337800104ad36823f4e0631b041b0c43f0bf63bb
:1033880043f40033d360bff35f8f62b60a4be02289
:1033980083f842230421996083f843230821996024
:1033a80083f844231021996083f8452320229a60ea
:0c33b800704700bf00ed00e000e100e005
:020000040000fa
:1033c40010b500f065fd00f0f3fcfff70bf900f019
:1033d400b2fcfff76ffc094800f008f90849002027
:1033e400fff776ff074c20600749002000f042fcfd
:1033f400606000f093fdfff7bdff10bd28090020b9
:0c340400383f00000c0900204c070000bd
:020000040000fa
:10341000c1f30a5340f21e42d21a0edd202a0ad806
:10342000cb0243ea505040f00040d04090eae170b7
:10343000b0ebe1707047002070474b00004218bfae
:1034400043f0010313f5001f88bf21f0004111f084
:0a345000004058bf6ff000407047c5
:020000040000fa
:02345a00fee78b
:020000040000fa
:10345c0028180000593c0000030000002c18000044
:10346c00853d00000300000030180000f93b00000f
:10347c000300000034180000b13c00000300000001
:10348c003818000009390000040000004018000042
:08349c00d93800000400000013
:020000040000fa
:1034a40070b50e4604460f4d08b92c6844b1204649
:1034b4003146fff7bffb044423781bb92b601c463d
:1034c400204670bd31462046fff7e8fc225c2318f5
:1034d4002b6022b101332b6000232354f0e72a60d0
:0834e400eee700bf38090020eb
:020000040000fa
:1034ec0010b50278202a034600f10100f9d0a2f1b0
:1034fc0009010429f5d92b2a07d02d2a11d1012134
:10350c000133013b00200a2403e00021f8e760436b
:10351c00801a13f8012f303a092af8d901b9404220
:06352c0010bd0021ede7d7
:020000040000fa
:02353200fee7b2
:020000040000fa
:1035340010b5054c227832b9044b13b10448aff3eb
:1035440000800123237010bde40800200000000067
:103554000000000008b5034b1bb103490348aff357
:10356400008008bd00000000e80800200000000002
:020000040000fa
:103574000c4a036810b5546a0b4a591e121b8a423e
:103584000ad22bb1094b0c221a604ff0ff3010bd48
:10359400102202600020fae7173323f00f030360c0
:1035a400f8e700bf64080020efffff7f4009002018
:020000040000fa
:1035b4004ff4001c1ceb410f98bf1ceb430f11d8b8
:1035c40051ea030c50ea4c0c5cea020c0cd004d215
:1035d40082428b4180410130704790429941804141
:0c35e40001307047002070470120704744
:020000040000fa
:1035f00090b138b50446094d00682860084b002298
:103600005a601a60214611f8012f0648fff750fa58
:1036100063886b80012038bd002070472c09002092
:0836200014090020343e0000f3
:020000040000fa
:1036280000090138202813d9b0f5007f05d2094bcd
:1036380003ebd00010f8040c7047b0f5e05f06d833
:10364800044b03ebd01010f8040c103070473f20e7
:08365800704700bf7031000053
:020000040000fa
:1036600030b50c4a002312f8134024b902eb43038f
:103670005b78184630bd01680d78a54209bf02eba2
:10368000430301335b78013114bfdbb201600a2bc5
:08369000e9d9eee7043d00005a
:020000040000fa
:103698004ff4001c1ceb410f98bf1ceb430f11d8d3
:1036a80051ea030c50ea4c0c5cea020c0ad004d232
:1036b80082428b418041404270479042994180410b
:0836c8004042704700207047ea
:020000040000fa
:1036d0004ff4001c1ceb410f98bf1ceb430f11d89b
:1036e00051ea030c50ea4c0c5cea020c0ad004d2fa
:1036f0009042994180414042704782428b418041d3
:083700004042704700207047b1
:020000040000fa
:1037080060b908b50a4b93f9003053b1084b5b68b0
:1037180053b19b6806488068984708bd4ff0ff3052
:1037280070474ff0ff30f8e74ff0ff30f5e700bf84
:043738000009002064
:020000040000fa
:10373c0060b908b50a4b93f9003053b1084b5b687c
:10374c0053b1db68064a9068984708bd4ff0ff30cc
:10375c0070474ff0ff30f8e74ff0ff30f5e700bf50
:04376c000009002030
:020000040000fa
:1037700060b908b50a4b93f9003053b1084b5b6848
:1037800053b15b6906488068984708bd4ff0ff3029
:1037900070474ff0ff30f8e74ff0ff30f5e700bf1c
:0437a00000090020fc
:020000040000fa
:1037a40010b503681b6808494068984780220021c7
:1037b400064800f085fb064b1c681cb12046fef74a
:1037c40095fefbe710bd00bf88160000d40700205b
:0437d40014090020b4
:020000040000fa
:1037d80098b90b460a494979012902d04ff0ff30c0
:1037e800704710b511461846054c002363712368cd
:1037f8001b6898470123637110bd4ff0ff30704775
:043808001c09002077
:020000040000fa
:10380c0098b90b460a494979012902d04ff0ff308b
:10381c00704710b511461846054c00236371236898
:10382c00db6898470123637110bd4ff0ff30704780
:04383c001c09002043
:020000040000fa
:1038400010b5013922b9034610461a4400210be095
:10385000034611f8014f03f8014b013a002cf4d054
:103860001846efe703f8011b9342fbd1002808bf7d
:04387000184610bd29
:020000040000fa
:103874004ff4001c1ceb410f98bf1ceb430f0cd8fa
:1038840050ea410c08bf52ea430c08d0904208bfea
:1038940099420cbf0120002070470020704701208e
:0238a40070476b
:020000040000fa
:0238a600fee73b
:020000040000fa
:1038a80000b583b08df80710084b5888fff738fd2e
:1038b800022802d003b05df804fb01220df10701d4
:1038c800024b5888fff750fff4e700bf2c0900208f
:020000040000fa
:1038d800c2698369d21a10d070b584b004460668ec
:1038e8004568064901a800f017fa336801a9284677
:1038f8009847e369a36104b070bd7047781600006b
:020000040000fa
:10390800f0b585b000f120058269521b0bd0044642
:1039180007684668054901a800f0fef93b6801a957
:1039280030469847a56105b0f0bd00bf801600007d
:020000040000fa
:1039380080b90a4b5b79012b02d04ff0ff307047fa
:1039480010b5064c0023637123681b69984701234f
:10395800637110bd4ff0ff30704700bf1c09002095
:020000040000fa
:1039680080b90a4b5b79012b02d04ff0ff307047ca
:1039780010b5064c0023637123685b6998470123df
:10398800637110bd4ff0ff30704700bf1c09002065
:020000040000fa
:1039980080b90a4b5b79012b02d04ff0ff3070479a
:1039a80010b5064c0023637123689b689847012370
:1039b800637110bd4ff0ff30704700bf1c09002035
:020000040000fa
:1039c80080b90a4b5b79012b02d04ff0ff3070476a
:1039d80010b5064c0023637123685b689847012380
:1039e800637110bd4ff0ff30704700bf1c09002005
:020000040000fa
:1039f80070b505462c68e30701d500200fe0204686
:103a0800fff70efe064600f013f92868a042f1d130
:103a180020f00100281a3146fff7d4fb012070bdc1
:020000040000fa
:103a280053b94ab9002908bf00281cbf4ff0ff311d
:103a38004ff0ff3000f0a8baadf1080c6de904cee4
:103a4800fdf76afcddf804e0dde9022304b0704705
:020000040000fa
:103a5800426822f00102531a102b30b40dd94418d1
:103a680041f0010543f00103455063608350456010
:0e3a780004f1080030bcfef737bd30bc7047cb
:020000040000fa
:023a8600704787
:020000040000fa
:103a880000030000493e0000d9370000c939000092
:103a9800993900000d3800003939000069390000f3
:0c3aa800953f0000b53e0000893f000083
:020000040000fa
:103ab40070b505466c68e30701d500200de020468b
:103ac400fff7b0fd064600f0b5f86b68a342f1d1ec
:0c3ad40028463146fff778fb012070bd4a
:020000040000fa
:103ae00000b553ec112b83b051ec100b8ded002b76
:103af000fef7d6fb9ded002b53ec122bfdf7a4fe39
:0c3b000041ec100b03b05df804fb00bfab
:020000040000fa
:103b0c00074b1968024609b9064919601868064935
:103b1c0002448a4294bf1a604ff0ff30704700bfd6
:0c3b2c004409002050090020500d00202a
:020000040000fa
:103b3800802910db812901dd83290cd11368073323
:103b480023f0070303f108011160d3e90023c0e95a
:0a3b58000023012070470020704791
:020000040000fa
:103b620030b57ab101380a4410f8013f0d4633b13d
:103b720011f8014b1cb1914201d0a342f4d02a7832
:083b8200981a30bd1046fce763
:020000040000fa
:103b8a0038b504699442054628bf1446224640695e
:103b9a0000f069f96a6913196b612b691b1b2b61a8
:063baa000023135538bd95
:020000040000fa
:103bb000bff34f8f0549ca6802f4e062044b134318
:103bc000cb60bff34f8f00bffde700bf00ed00e00b
:043bd0000400fa05ee
:020000040000fa
:103bd400e01700009d3d0000e8170000f817000002
:103be400a5370000fc17000018180000fd1f000096
:043bf4002018000095
:020000040000fa
:103bf8008269c3699a420ad210b5044603681b68f1
:103c0800096840689847a3690133a36110bd7047ec
:020000040000fa
:103c180000b583b001220df10701044b5888fff766
:103c28006ffd9df8070003b05df804fb2c09002028
:020000040000fa
:103c3800064b013053f830203ab9c100a1f108020f
:103c48001a44194443f830204a60704700040020a1
:020000040000fa
:103c580008b5d0f8d4303bb11968d0f8cc308b42d5
:0e3c680001d0fef78dfe08bdd0f8cc10f9e7b4
:020000040000fa
:023c7600fee767
:020000040000fa
:103c78004a78044b1a70044b4a885a8002221a70f8
:0c3c88000020704749090020240900209a
:020000040000fa
:103c940008b50020fff794fb03490020fff772f9f1
:0c3ca40000f042f9fce700bf703f000098
:020000040000fa
:103cb00008b5836900f12002934206d90268013bee
:0c3cc0008361136809684068984708bddc
:020000040000fa
:103ccc0010b50c46084600f0fff802462146024ba0
:0c3cdc005888fff747fd10bd2c090020a0
:020000040000fa
:103ce80013b50446019201aafdf79cf9636813f025
:0c3cf800100f18bf4ff0ff3002b010bddd
:020000040000fa
:103d040068076c094c836a9074a07ac00080688844
:0c3d140000846c820081286e696c29001c
:020000040000fa
:103d20000eb403b503aa52f8041b019200f00af97d
:0a3d300002b05df804eb03b0704729
:020000040000fa
:023d3a007047d0
:020000040000fa
:103d3c00044a9368d06883423ebf024a12699b18ba
:083d4c00181a7047a4080020ba
:020000040000fa
:103d5400044bd86a9b6a984282bf024a126b9b1832
:083d6400181a7047a4080020a2
:020000040000fa
:103d6c00b12d0000553d00000d3e0000392800002b
:083d7c00693f0000213e000038
:020000040000fa
:103d840008b5d0f8d43033b15968d0f8d0308b426c
:083d940001d0fef7f7fd08bda8
:020000040000fa
:103d9c0008b503681b68034940689847fff702ffa2
:083dac0008bd00bfbc160000b9
:020000040000fa
:103db400044b012283f8d02083f8d120222283f8f7
:083dc400b820704700800041a7
:020000040000fa
:103dcc000068002808b501da002008bdfff798fe4e
:063ddc00431cfad1f8e7d8
:020000040000fa
:103de20010b50023c25ccc5ca24202d10133002a8e
:063df200f8d1101b10bd0a
:020000040000fa
:103df800034b1b7813b9024b01221a70704700bf9e
:043e08004809002045
:020000040000fa
:103e0c0010b5034b1c6bfff79fff013c201a10bd34
:043e1c00a4080020d6
:020000040000fa
:103e200010b5034b1c69fff789ff013c201a10bd38
:043e3000a4080020c2
:020000040000fa
:103e3400cd3c0000392b0000a9380000a53e00004d
:043e4400193c000025
:020000040000fa
:103e480028b9034b01225a71096819601a71704721
:043e58001c09002021
:020000040000fa
:103e5c0010b50c46fff728f90378e4b2a34218bf5b
:043e6c00002010bd65
:020000040000fa
:103e700010b500239a4200d110bdcc5cc45401336c
:023e8000f8e761
:020000040000fa
:103e8200034611f8012b184603f8012b002af8d13a
:023e9200704777
:020000040000fa
:103e9400024b40f204521a80704700bf00400041b8
:020000040000fa
:103ea40008b5024b5888fff747fc08bd2c090020d1
:020000040000fa
:103eb40010b9024b18797047032070471c09002081
:020000040000fa
:103ec40002440346934200d1704703f8011bf9e70b
:020000040000fa
:103ed40003461a46013311780029fad1101a7047a3
:020000040000fa
:103ee400494e4600696e66004e414e006e616e009a
:103ef400494e4600696e66004e414e006e616e008a
:020000040000fa
:0e3f0400a0f14103192b98bf40f02000704738
:020000040000fa
:0e3f1200a0f16103192b98bf00f05f0070470b
:020000040000fa
:0c3f2000014b00221a7070474809002075
:020000040000fa
:0c3f2c0008b5fcf76bfefff761ff08bd55
:020000040000fa
:0c3f3800bc260000883a000000000000d9
:020000040000fa
:0c3f440013460a466ff00041fff782b8f8
:020000040000fa
:0c3f500010b50446fff795ff204610bd99
:020000040000fa
:0c3f5c0010b50446fff76efc204610bdb7
:020000040000fa
:083f680008b5fff7e7fe08bdf4
:020000040000fa
:083f70000a0d48656c6c6f003e
:020000040000fa
:083f780083f00043fdf764bc77
:020000040000fa
:073f8000286e756c6c29002e
:020000040000fa
:043f8800012070475d
:020000040000fa
:043f8c00fff732b851
:020000040000fa
:043f9000704700bfb7
:020000040000fa
:023f9400704774
:020000040000fa
:023f9600704772
:020000040000fa
:0200000400807a
:044000003912003c35
:020000040000fa
:0200000400807a
:044004008000a82a66
:020000040000fa
:0200000400807a
:04400800ffffffffb8
:00000001FF
